{
  "contractName": "VirtualPet",
  "abi": [
    {
      "constant": true,
      "inputs": [
        {
          "name": "",
          "type": "uint256"
        }
      ],
      "name": "playerList",
      "outputs": [
        {
          "name": "",
          "type": "address"
        }
      ],
      "payable": false,
      "stateMutability": "view",
      "type": "function"
    },
    {
      "inputs": [],
      "payable": false,
      "stateMutability": "nonpayable",
      "type": "constructor"
    },
    {
      "anonymous": false,
      "inputs": [
        {
          "indexed": false,
          "name": "requester",
          "type": "address"
        },
        {
          "indexed": false,
          "name": "invited",
          "type": "address"
        }
      ],
      "name": "PlayRequest",
      "type": "event"
    },
    {
      "anonymous": false,
      "inputs": [],
      "name": "NewPlayer",
      "type": "event"
    },
    {
      "constant": false,
      "inputs": [
        {
          "name": "name",
          "type": "string"
        },
        {
          "name": "petName",
          "type": "string"
        },
        {
          "name": "petImage",
          "type": "string"
        }
      ],
      "name": "addPlayer",
      "outputs": [
        {
          "name": "",
          "type": "address"
        }
      ],
      "payable": false,
      "stateMutability": "nonpayable",
      "type": "function"
    },
    {
      "constant": false,
      "inputs": [
        {
          "name": "name",
          "type": "string"
        },
        {
          "name": "petName",
          "type": "string"
        },
        {
          "name": "petImage",
          "type": "string"
        }
      ],
      "name": "updatePlayer",
      "outputs": [],
      "payable": false,
      "stateMutability": "nonpayable",
      "type": "function"
    },
    {
      "constant": false,
      "inputs": [
        {
          "name": "friend",
          "type": "address"
        }
      ],
      "name": "sendPlayRequest",
      "outputs": [],
      "payable": false,
      "stateMutability": "nonpayable",
      "type": "function"
    },
    {
      "constant": true,
      "inputs": [],
      "name": "getPlayerData",
      "outputs": [
        {
          "name": "",
          "type": "string"
        },
        {
          "name": "",
          "type": "string"
        },
        {
          "name": "",
          "type": "string"
        },
        {
          "name": "",
          "type": "uint256"
        }
      ],
      "payable": false,
      "stateMutability": "view",
      "type": "function"
    },
    {
      "constant": true,
      "inputs": [
        {
          "name": "playerAddr",
          "type": "address"
        }
      ],
      "name": "getPetDataByPlayer",
      "outputs": [
        {
          "name": "",
          "type": "string"
        },
        {
          "name": "",
          "type": "string"
        },
        {
          "name": "",
          "type": "string"
        },
        {
          "name": "",
          "type": "uint256"
        }
      ],
      "payable": false,
      "stateMutability": "view",
      "type": "function"
    },
    {
      "constant": true,
      "inputs": [],
      "name": "iamTheOwner",
      "outputs": [
        {
          "name": "",
          "type": "bool"
        }
      ],
      "payable": false,
      "stateMutability": "view",
      "type": "function"
    },
    {
      "constant": true,
      "inputs": [],
      "name": "getPlayersLength",
      "outputs": [
        {
          "name": "",
          "type": "uint256"
        }
      ],
      "payable": false,
      "stateMutability": "view",
      "type": "function"
    },
    {
      "constant": true,
      "inputs": [
        {
          "name": "idx",
          "type": "uint256"
        }
      ],
      "name": "getPlayerAddress",
      "outputs": [
        {
          "name": "",
          "type": "address"
        }
      ],
      "payable": false,
      "stateMutability": "view",
      "type": "function"
    },
    {
      "constant": false,
      "inputs": [
        {
          "name": "requestAddress",
          "type": "address"
        }
      ],
      "name": "letsPlay",
      "outputs": [],
      "payable": false,
      "stateMutability": "nonpayable",
      "type": "function"
    },
    {
      "constant": true,
      "inputs": [],
      "name": "getPlayRequestLength",
      "outputs": [
        {
          "name": "",
          "type": "uint256"
        }
      ],
      "payable": false,
      "stateMutability": "view",
      "type": "function"
    },
    {
      "constant": true,
      "inputs": [
        {
          "name": "idx",
          "type": "uint256"
        }
      ],
      "name": "getPlayRequest",
      "outputs": [
        {
          "name": "",
          "type": "address"
        }
      ],
      "payable": false,
      "stateMutability": "view",
      "type": "function"
    },
    {
      "constant": false,
      "inputs": [
        {
          "name": "adr",
          "type": "address"
        },
        {
          "name": "level",
          "type": "uint256"
        }
      ],
      "name": "decrementEnergyLevel",
      "outputs": [],
      "payable": false,
      "stateMutability": "nonpayable",
      "type": "function"
    }
  ],
  "bytecode": "0x6060604052341561000f57600080fd5b336000806101000a81548173ffffffffffffffffffffffffffffffffffffffff021916908373ffffffffffffffffffffffffffffffffffffffff160217905550611c0b8061005e6000396000f3006060604052600436106100c5576000357c0100000000000000000000000000000000000000000000000000000000900463ffffffff1680631cf1f4ba146100ca57806345c7a74514610237578063652256651461035a57806367e43b1a146103bd57806381efaa29146104a05780638a6dc537146104c9578063a92f2af714610502578063ae6d907314610544578063cd61386d146105a7578063e28ff484146105d0578063e6dce59a146105fd578063eaa6e0531461078e578063ed57954b146107f1575b600080fd5b34156100d557600080fd5b6100dd61082a565b60405180806020018060200180602001858152602001848103845288818151815260200191508051906020019080838360005b8381101561012b578082015181840152602081019050610110565b50505050905090810190601f1680156101585780820380516001836020036101000a031916815260200191505b50848103835287818151815260200191508051906020019080838360005b83811015610191578082015181840152602081019050610176565b50505050905090810190601f1680156101be5780820380516001836020036101000a031916815260200191505b50848103825286818151815260200191508051906020019080838360005b838110156101f75780820151818401526020810190506101dc565b50505050905090810190601f1680156102245780820380516001836020036101000a031916815260200191505b5097505050505050505060405180910390f35b341561024257600080fd5b610318600480803590602001908201803590602001908080601f0160208091040260200160405190810160405280939291908181526020018383808284378201915050505050509190803590602001908201803590602001908080601f0160208091040260200160405190810160405280939291908181526020018383808284378201915050505050509190803590602001908201803590602001908080601f0160208091040260200160405190810160405280939291908181526020018383808284378201915050505050509190505061085b565b604051808273ffffffffffffffffffffffffffffffffffffffff1673ffffffffffffffffffffffffffffffffffffffff16815260200191505060405180910390f35b341561036557600080fd5b61037b60048080359060200190919050506109b6565b604051808273ffffffffffffffffffffffffffffffffffffffff1673ffffffffffffffffffffffffffffffffffffffff16815260200191505060405180910390f35b34156103c857600080fd5b61049e600480803590602001908201803590602001908080601f0160208091040260200160405190810160405280939291908181526020018383808284378201915050505050509190803590602001908201803590602001908080601f0160208091040260200160405190810160405280939291908181526020018383808284378201915050505050509190803590602001908201803590602001908080601f016020809104026020016040519081016040528093929190818152602001838380828437820191505050505050919050506109fa565b005b34156104ab57600080fd5b6104b3610b42565b6040518082815260200191505060405180910390f35b34156104d457600080fd5b610500600480803573ffffffffffffffffffffffffffffffffffffffff16906020019091905050610e41565b005b341561050d57600080fd5b610542600480803573ffffffffffffffffffffffffffffffffffffffff16906020019091908035906020019091905050610fb7565b005b341561054f57600080fd5b6105656004808035906020019091905050611091565b604051808273ffffffffffffffffffffffffffffffffffffffff1673ffffffffffffffffffffffffffffffffffffffff16815260200191505060405180910390f35b34156105b257600080fd5b6105ba6110d0565b6040518082815260200191505060405180910390f35b34156105db57600080fd5b6105e36110dd565b604051808215151515815260200191505060405180910390f35b341561060857600080fd5b610634600480803573ffffffffffffffffffffffffffffffffffffffff16906020019091905050611134565b60405180806020018060200180602001858152602001848103845288818151815260200191508051906020019080838360005b83811015610682578082015181840152602081019050610667565b50505050905090810190601f1680156106af5780820380516001836020036101000a031916815260200191505b50848103835287818151815260200191508051906020019080838360005b838110156106e85780820151818401526020810190506106cd565b50505050905090810190601f1680156107155780820380516001836020036101000a031916815260200191505b50848103825286818151815260200191508051906020019080838360005b8381101561074e578082015181840152602081019050610733565b50505050905090810190601f16801561077b5780820380516001836020036101000a031916815260200191505b5097505050505050505060405180910390f35b341561079957600080fd5b6107af600480803590602001909190505061143f565b604051808273ffffffffffffffffffffffffffffffffffffffff1673ffffffffffffffffffffffffffffffffffffffff16815260200191505060405180910390f35b34156107fc57600080fd5b610828600480803573ffffffffffffffffffffffffffffffffffffffff1690602001909190505061175d565b005b610832611a55565b61083a611a55565b610842611a55565b600061084d33611134565b935093509350935090919293565b60008061086785611a3b565b15151561087357600080fd5b600160003373ffffffffffffffffffffffffffffffffffffffff1673ffffffffffffffffffffffffffffffffffffffff1681526020019081526020016000209050848160000190805190602001906108cc929190611a69565b5060648160010160000181905550828160010160010190805190602001906108f5929190611a69565b5083816001016002019080519060200190610911929190611a69565b5060008160050181905550600280548060010182816109309190611ae9565b9160005260206000209001600033909190916101000a81548173ffffffffffffffffffffffffffffffffffffffff021916908373ffffffffffffffffffffffffffffffffffffffff160217905550507fe1ad53447c22d64aa0ff287e416c73bd87d0aeaaebb628bcb5b48d5ae215239260405160405180910390a1339150509392505050565b60006002828154811015156109c757fe5b906000526020600020900160009054906101000a900473ffffffffffffffffffffffffffffffffffffffff169050919050565b6000610a0584611a3b565b151515610a1157600080fd5b600160003373ffffffffffffffffffffffffffffffffffffffff1673ffffffffffffffffffffffffffffffffffffffff168152602001908152602001600020905083816000019080519060200190610a6a929190611a69565b5081816001016001019080519060200190610a86929190611a69565b5082816001016002019080519060200190610aa2929190611a69565b506000816005018190555060028054806001018281610ac19190611ae9565b9160005260206000209001600033909190916101000a81548173ffffffffffffffffffffffffffffffffffffffff021916908373ffffffffffffffffffffffffffffffffffffffff160217905550507fe1ad53447c22d64aa0ff287e416c73bd87d0aeaaebb628bcb5b48d5ae215239260405160405180910390a150505050565b6000610b4c611b15565b600160003373ffffffffffffffffffffffffffffffffffffffff1673ffffffffffffffffffffffffffffffffffffffff16815260200190815260200160002060806040519081016040529081600082018054600181600116156101000203166002900480601f016020809104026020016040519081016040528092919081815260200182805460018160011615610100020316600290048015610c305780601f10610c0557610100808354040283529160200191610c30565b820191906000526020600020905b815481529060010190602001808311610c1357829003601f168201915b50505050508152602001600182016060604051908101604052908160008201548152602001600182018054600181600116156101000203166002900480601f016020809104026020016040519081016040528092919081815260200182805460018160011615610100020316600290048015610ced5780601f10610cc257610100808354040283529160200191610ced565b820191906000526020600020905b815481529060010190602001808311610cd057829003601f168201915b50505050508152602001600282018054600181600116156101000203166002900480601f016020809104026020016040519081016040528092919081815260200182805460018160011615610100020316600290048015610d8f5780601f10610d6457610100808354040283529160200191610d8f565b820191906000526020600020905b815481529060010190602001808311610d7257829003601f168201915b505050505081525050815260200160048201805480602002602001604051908101604052809291908181526020018280548015610e2157602002820191906000526020600020905b8160009054906101000a900473ffffffffffffffffffffffffffffffffffffffff1673ffffffffffffffffffffffffffffffffffffffff1681526020019060010190808311610dd7575b505050505081526020016005820154815250509050806060015191505090565b600080600160008473ffffffffffffffffffffffffffffffffffffffff1673ffffffffffffffffffffffffffffffffffffffff1681526020019081526020016000209150610f2a826000018054600181600116156101000203166002900480601f016020809104026020016040519081016040528092919081815260200182805460018160011615610100020316600290048015610f205780601f10610ef557610100808354040283529160200191610f20565b820191906000526020600020905b815481529060010190602001808311610f0357829003601f168201915b5050505050611a3b565b151515610f3657600080fd5b816004019050808054806001018281610f4f9190611ae9565b9160005260206000209001600033909190916101000a81548173ffffffffffffffffffffffffffffffffffffffff021916908373ffffffffffffffffffffffffffffffffffffffff160217905550508160050160008154809291906001019190505550505050565b60008060009054906101000a900473ffffffffffffffffffffffffffffffffffffffff1673ffffffffffffffffffffffffffffffffffffffff163373ffffffffffffffffffffffffffffffffffffffff1614151561101457600080fd5b600160008473ffffffffffffffffffffffffffffffffffffffff1673ffffffffffffffffffffffffffffffffffffffff1681526020019081526020016000209050818160010160000154111561107e5781816001016000015403816001016000018190555061108c565b600081600101600001819055505b505050565b6002818154811015156110a057fe5b90600052602060002090016000915054906101000a900473ffffffffffffffffffffffffffffffffffffffff1681565b6000600280549050905090565b60008060009054906101000a900473ffffffffffffffffffffffffffffffffffffffff1673ffffffffffffffffffffffffffffffffffffffff163373ffffffffffffffffffffffffffffffffffffffff1614905090565b61113c611a55565b611144611a55565b61114c611a55565b600080600160008773ffffffffffffffffffffffffffffffffffffffff1673ffffffffffffffffffffffffffffffffffffffff1681526020019081526020016000209050611235816000018054600181600116156101000203166002900480601f01602080910402602001604051908101604052809291908181526020018280546001816001161561010002031660029004801561122b5780601f106112005761010080835404028352916020019161122b565b820191906000526020600020905b81548152906001019060200180831161120e57829003601f168201915b5050505050611a3b565b15151561124157600080fd5b8060000181600101600201826001016001018360010160000154838054600181600116156101000203166002900480601f0160208091040260200160405190810160405280929190818152602001828054600181600116156101000203166002900480156112f05780601f106112c5576101008083540402835291602001916112f0565b820191906000526020600020905b8154815290600101906020018083116112d357829003601f168201915b50505050509350828054600181600116156101000203166002900480601f01602080910402602001604051908101604052809291908181526020018280546001816001161561010002031660029004801561138c5780601f106113615761010080835404028352916020019161138c565b820191906000526020600020905b81548152906001019060200180831161136f57829003601f168201915b50505050509250818054600181600116156101000203166002900480601f0160208091040260200160405190810160405280929190818152602001828054600181600116156101000203166002900480156114285780601f106113fd57610100808354040283529160200191611428565b820191906000526020600020905b81548152906001019060200180831161140b57829003601f168201915b505050505091509450945094509450509193509193565b6000611449611b15565b6000600160003373ffffffffffffffffffffffffffffffffffffffff1673ffffffffffffffffffffffffffffffffffffffff16815260200190815260200160002060806040519081016040529081600082018054600181600116156101000203166002900480601f01602080910402602001604051908101604052809291908181526020018280546001816001161561010002031660029004801561152f5780601f106115045761010080835404028352916020019161152f565b820191906000526020600020905b81548152906001019060200180831161151257829003601f168201915b50505050508152602001600182016060604051908101604052908160008201548152602001600182018054600181600116156101000203166002900480601f0160208091040260200160405190810160405280929190818152602001828054600181600116156101000203166002900480156115ec5780601f106115c1576101008083540402835291602001916115ec565b820191906000526020600020905b8154815290600101906020018083116115cf57829003601f168201915b50505050508152602001600282018054600181600116156101000203166002900480601f01602080910402602001604051908101604052809291908181526020018280546001816001161561010002031660029004801561168e5780601f106116635761010080835404028352916020019161168e565b820191906000526020600020905b81548152906001019060200180831161167157829003601f168201915b50505050508152505081526020016004820180548060200260200160405190810160405280929190818152602001828054801561172057602002820191906000526020600020905b8160009054906101000a900473ffffffffffffffffffffffffffffffffffffffff1673ffffffffffffffffffffffffffffffffffffffff16815260200190600101908083116116d6575b50505050508152602001600582015481525050915081604001518481518110151561174757fe5b9060200190602002015190508092505050919050565b6000806000600160003373ffffffffffffffffffffffffffffffffffffffff1673ffffffffffffffffffffffffffffffffffffffff168152602001908152602001600020925060008360050154111561196957600091505b826005015482108015611830575082600401828154811015156117d457fe5b906000526020600020900160009054906101000a900473ffffffffffffffffffffffffffffffffffffffff1673ffffffffffffffffffffffffffffffffffffffff168473ffffffffffffffffffffffffffffffffffffffff1614155b156118425781806001019250506117b5565b60018360050154038211151561190d578190505b600183600501540381101561190c57826004016001820181548110151561187957fe5b906000526020600020900160009054906101000a900473ffffffffffffffffffffffffffffffffffffffff1683600401828154811015156118b657fe5b906000526020600020900160006101000a81548173ffffffffffffffffffffffffffffffffffffffff021916908373ffffffffffffffffffffffffffffffffffffffff1602179055508080600101915050611856565b5b82600401600184600501540381548110151561192557fe5b906000526020600020900160006101000a81549073ffffffffffffffffffffffffffffffffffffffff02191690558260050160008154809291906001900391905055505b6064836001016000015410156119915782600101600001600081548092919060010191905055505b6064600160008673ffffffffffffffffffffffffffffffffffffffff1673ffffffffffffffffffffffffffffffffffffffff168152602001908152602001600020600101600001541015611a3557600160008573ffffffffffffffffffffffffffffffffffffffff1673ffffffffffffffffffffffffffffffffffffffff168152602001908152602001600020600101600001600081548092919060010191905055505b50505050565b6000611a45611b50565b8290506000815114915050919050565b602060405190810160405280600081525090565b828054600181600116156101000203166002900490600052602060002090601f016020900481019282601f10611aaa57805160ff1916838001178555611ad8565b82800160010185558215611ad8579182015b82811115611ad7578251825591602001919060010190611abc565b5b509050611ae59190611b64565b5090565b815481835581811511611b1057818360005260206000209182019101611b0f9190611b64565b5b505050565b60c060405190810160405280611b29611b89565b8152602001611b36611b9d565b8152602001611b43611bcb565b8152602001600081525090565b602060405190810160405280600081525090565b611b8691905b80821115611b82576000816000905550600101611b6a565b5090565b90565b602060405190810160405280600081525090565b60606040519081016040528060008152602001611bb8611b89565b8152602001611bc5611b89565b81525090565b6020604051908101604052806000815250905600a165627a7a7230582076f02fb197c2fe96eaa1d4f8aa6a86a0658c08bd1a4b8bb93ffd2a7068b55a150029",
  "source": "pragma solidity ^0.4.21;\n\n\ncontract VirtualPet {\n\n    address gameOwner;\n\n    struct Player {\n        string name;\n        Pet vPet;\n        address[] requests;\n        uint requestsLength;\n    }\n\n    struct Pet {\n        uint energyLevel;\n        string image;\n        string name;\n    }\n\n    mapping(address => Player)  players;\n    address[] public playerList;\n\n    //Events\n    event PlayRequest(address requester,address invited);\n    event NewPlayer();\n\n    modifier onlyOwner {\n        if(msg.sender != gameOwner) revert();\n        _;\n    }\n\n    function VirtualPet() public {\n        gameOwner = msg.sender;\n    }\n\n    function addPlayer(string name, string petName, string petImage) public returns(address){\n        require(!isEmpty(name)); \n        Player storage player = players[msg.sender];\n        \n        player.name=name;\n        player.vPet.energyLevel=100;\n        player.vPet.image=petImage;\n        player.vPet.name=petName;\n        player.requestsLength=0;\n\n        playerList.push(msg.sender);\n        emit NewPlayer();\n\n        return msg.sender;\n    }\n\n    function updatePlayer(string name, string petName, string petImage) public {\n        require(!isEmpty(name)); \n        Player storage player = players[msg.sender];\n        \n        player.name=name;\n        player.vPet.image=petImage;\n        player.vPet.name=petName;\n        player.requestsLength=0;\n\n        playerList.push(msg.sender);\n        emit NewPlayer();\n    }\n\n    function isEmpty (string a) pure private returns (bool)  {\n        bytes memory testEmptyString = bytes(a);\n        return testEmptyString.length == 0;\n    }\n\n    function sendPlayRequest(address friend) public {\n        Player storage player = players[friend];\n        require(!isEmpty(player.name)); //exists\n        address[] storage rqs = player.requests;\n        rqs.push(msg.sender);\n        player.requestsLength++;\n        //emit PlayRequest(msg.sender,friend);\n    }\n\n    function getPlayerData() view public returns (string ,string,string,uint) {\n        return getPetDataByPlayer(msg.sender);\n    }\n\n    function getPetDataByPlayer(address playerAddr) view public returns (string ,string,string,uint){\n        Player storage player = players[playerAddr];\n        require(!isEmpty(player.name)); //exists\n        return (player.name,player.vPet.name,player.vPet.image,player.vPet.energyLevel);\n        \n    }\n\n    function iamTheOwner() view public returns (bool){\n         return (msg.sender == gameOwner);\n    }\n\n    function getPlayersLength() view public returns (uint){   \n        return playerList.length;\n    }\n\n    function getPlayerAddress(uint idx) view public returns (address){\n        //require(idx < playerList.length);\n        return playerList[idx];\n    }\n\n    function letsPlay(address requestAddress) public {\n        Player storage player = players[msg.sender];\n        if(player.requestsLength > 0 ){\n            uint index=0;\n            while(index<player.requestsLength && requestAddress!=player.requests[index]){\n                index++;\n            }\n            if(index<=player.requestsLength-1){\n                for (uint i = index; i<player.requestsLength-1; i++){\n                    player.requests[i] = player.requests[i+1];\n                }\n            }\n            delete player.requests[player.requestsLength-1];\n            player.requestsLength--;\n        }\n\n        \n        if(player.vPet.energyLevel<100){\n            player.vPet.energyLevel++;\n        }\n        if(players[requestAddress].vPet.energyLevel<100){\n            players[requestAddress].vPet.energyLevel++;\n        }\n        \n    }\n\n    function getPlayRequestLength() view public returns(uint){\n        Player memory player = players[msg.sender];\n        return player.requestsLength;\n    }\n\n    function getPlayRequest(uint idx) view public returns(address) {\n        Player memory player = players[msg.sender];\n        address adds =  player.requests[idx];\n        return adds;\n    }\n\n    function decrementEnergyLevel(address adr, uint level) public onlyOwner(){\n        Player storage player = players[adr];\n        if(player.vPet.energyLevel>level){\n            player.vPet.energyLevel = player.vPet.energyLevel-level;\n        }else{\n            player.vPet.energyLevel = 0;\n        }\n    }\n\n\n}",
  "sourcePath": "/Users/ximealvarorito/Documents/Alvaro/Blockchain/Curso/entrega/agGame2/blur-admin/contracts/VirtualPet.sol",
  "compiler": {
    "name": "solc",
    "version": "0.4.21+commit.dfe3193c.Emscripten.clang"
  },
  "schemaVersion": "2.0.0",
  "updatedAt": "2018-04-20T03:56:09.578Z"
}